{
  "_format": "ethoko-contract-artifact-v0",
  "id": "c5ea0c3bfa24",
  "project": "verified-counter",
  "abi": [
    {
      "type": "constructor",
      "inputs": [
        {
          "name": "_oracle",
          "type": "address",
          "internalType": "contract Oracle"
        }
      ],
      "stateMutability": "nonpayable"
    },
    {
      "type": "event",
      "name": "Increment",
      "inputs": [
        {
          "name": "by",
          "type": "uint256",
          "internalType": "uint256",
          "indexed": false
        }
      ],
      "anonymous": false
    },
    {
      "type": "event",
      "name": "Multiply",
      "inputs": [
        {
          "name": "by",
          "type": "uint256",
          "internalType": "uint256",
          "indexed": false
        }
      ],
      "anonymous": false
    },
    {
      "type": "function",
      "name": "incBy",
      "inputs": [
        {
          "name": "by",
          "type": "uint256",
          "internalType": "uint256"
        }
      ],
      "outputs": [],
      "stateMutability": "nonpayable"
    },
    {
      "type": "function",
      "name": "mulBy",
      "inputs": [
        {
          "name": "by",
          "type": "uint256",
          "internalType": "uint256"
        }
      ],
      "outputs": [],
      "stateMutability": "nonpayable"
    },
    {
      "type": "function",
      "name": "oracle",
      "inputs": [],
      "outputs": [
        {
          "name": "",
          "type": "address",
          "internalType": "contract Oracle"
        }
      ],
      "stateMutability": "view"
    },
    {
      "type": "function",
      "name": "x",
      "inputs": [],
      "outputs": [
        {
          "name": "",
          "type": "uint256",
          "internalType": "uint256"
        }
      ],
      "stateMutability": "view"
    }
  ],
  "linkReferences": {
    "project/contracts/ExternalMath.sol": {
      "ExternalMath": [
        {
          "start": 611,
          "length": 20
        }
      ]
    }
  },
  "deployedLinkReferences": {
    "project/contracts/ExternalMath.sol": {
      "ExternalMath": [
        {
          "start": 476,
          "length": 20
        }
      ]
    }
  },
  "contractName": "Counter",
  "sourceName": "project/contracts/Counter.sol",
  "evm": {
    "bytecode": {
      "object": "6080604052348015600e575f5ffd5b50604051610388380380610388833981016040819052602b91604f565b600180546001600160a01b0319166001600160a01b0392909216919091179055607a565b5f60208284031215605e575f5ffd5b81516001600160a01b03811681146073575f5ffd5b9392505050565b610301806100875f395ff3fe608060405234801561000f575f5ffd5b506004361061004a575f3560e01c80630c55699c1461004e57806370119d06146100695780637dc0d1d01461007e578063f189ba7e146100a9575b5f5ffd5b6100565f5481565b6040519081526020015b60405180910390f35b61007c61007736600461027e565b6100bc565b005b600154610091906001600160a01b031681565b6040516001600160a01b039091168152602001610060565b61007c6100b736600461027e565b610161565b5f811161011c5760405162461bcd60e51b815260206004820152602360248201527f696e6342793a20696e6372656d656e742073686f756c6420626520706f73697460448201526269766560e81b60648201526084015b60405180910390fd5b5f54610128908261026a565b5f556040518181527f51af157c2eee40f68107a47a49c32fbbeb0a3c9e5cd37aa56e88e6be92368a81906020015b60405180910390a150565b5f81116101bc5760405162461bcd60e51b8152602060048201526024808201527f6d756c42793a206d756c7469706c6965722073686f756c6420626520706f73696044820152637469766560e01b6064820152608401610113565b5f546040516332292b2760e21b815260048101919091526024810182905273__$1f216dc397dcd3de76fc49538f5b3d5e5e$__9063c8a4ac9c90604401602060405180830381865af4158015610214573d5f5f3e3d5ffd5b505050506040513d601f19601f820116820180604052508101906102389190610295565b5f556040518181527fcba0fc42cfd14131f8cbd3aeb2d0cd5199ccda147ae0506fbc883c61bc964ad790602001610156565b5f61027582846102ac565b90505b92915050565b5f6020828403121561028e575f5ffd5b5035919050565b5f602082840312156102a5575f5ffd5b5051919050565b8082018082111561027857634e487b7160e01b5f52601160045260245ffdfea2646970667358221220ce845d522cd2be97caf0ce73939dd59b26f789b5bd21e6ff00cab048c94b288664736f6c634300081c0033",
      "opcodes": "PUSH1 0x80 PUSH1 0x40 MSTORE CALLVALUE DUP1 ISZERO PUSH1 0xE JUMPI PUSH0 PUSH0 REVERT JUMPDEST POP PUSH1 0x40 MLOAD PUSH2 0x388 CODESIZE SUB DUP1 PUSH2 0x388 DUP4 CODECOPY DUP2 ADD PUSH1 0x40 DUP2 SWAP1 MSTORE PUSH1 0x2B SWAP2 PUSH1 0x4F JUMP JUMPDEST PUSH1 0x1 DUP1 SLOAD PUSH1 0x1 PUSH1 0x1 PUSH1 0xA0 SHL SUB NOT AND PUSH1 0x1 PUSH1 0x1 PUSH1 0xA0 SHL SUB SWAP3 SWAP1 SWAP3 AND SWAP2 SWAP1 SWAP2 OR SWAP1 SSTORE PUSH1 0x7A JUMP JUMPDEST PUSH0 PUSH1 0x20 DUP3 DUP5 SUB SLT ISZERO PUSH1 0x5E JUMPI PUSH0 PUSH0 REVERT JUMPDEST DUP2 MLOAD PUSH1 0x1 PUSH1 0x1 PUSH1 0xA0 SHL SUB DUP2 AND DUP2 EQ PUSH1 0x73 JUMPI PUSH0 PUSH0 REVERT JUMPDEST SWAP4 SWAP3 POP POP POP JUMP JUMPDEST PUSH2 0x301 DUP1 PUSH2 0x87 PUSH0 CODECOPY PUSH0 RETURN INVALID PUSH1 0x80 PUSH1 0x40 MSTORE CALLVALUE DUP1 ISZERO PUSH2 0xF JUMPI PUSH0 PUSH0 REVERT JUMPDEST POP PUSH1 0x4 CALLDATASIZE LT PUSH2 0x4A JUMPI PUSH0 CALLDATALOAD PUSH1 0xE0 SHR DUP1 PUSH4 0xC55699C EQ PUSH2 0x4E JUMPI DUP1 PUSH4 0x70119D06 EQ PUSH2 0x69 JUMPI DUP1 PUSH4 0x7DC0D1D0 EQ PUSH2 0x7E JUMPI DUP1 PUSH4 0xF189BA7E EQ PUSH2 0xA9 JUMPI JUMPDEST PUSH0 PUSH0 REVERT JUMPDEST PUSH2 0x56 PUSH0 SLOAD DUP2 JUMP JUMPDEST PUSH1 0x40 MLOAD SWAP1 DUP2 MSTORE PUSH1 0x20 ADD JUMPDEST PUSH1 0x40 MLOAD DUP1 SWAP2 SUB SWAP1 RETURN JUMPDEST PUSH2 0x7C PUSH2 0x77 CALLDATASIZE PUSH1 0x4 PUSH2 0x27E JUMP JUMPDEST PUSH2 0xBC JUMP JUMPDEST STOP JUMPDEST PUSH1 0x1 SLOAD PUSH2 0x91 SWAP1 PUSH1 0x1 PUSH1 0x1 PUSH1 0xA0 SHL SUB AND DUP2 JUMP JUMPDEST PUSH1 0x40 MLOAD PUSH1 0x1 PUSH1 0x1 PUSH1 0xA0 SHL SUB SWAP1 SWAP2 AND DUP2 MSTORE PUSH1 0x20 ADD PUSH2 0x60 JUMP JUMPDEST PUSH2 0x7C PUSH2 0xB7 CALLDATASIZE PUSH1 0x4 PUSH2 0x27E JUMP JUMPDEST PUSH2 0x161 JUMP JUMPDEST PUSH0 DUP2 GT PUSH2 0x11C JUMPI PUSH1 0x40 MLOAD PUSH3 0x461BCD PUSH1 0xE5 SHL DUP2 MSTORE PUSH1 0x20 PUSH1 0x4 DUP3 ADD MSTORE PUSH1 0x23 PUSH1 0x24 DUP3 ADD MSTORE PUSH32 0x696E6342793A20696E6372656D656E742073686F756C6420626520706F736974 PUSH1 0x44 DUP3 ADD MSTORE PUSH3 0x697665 PUSH1 0xE8 SHL PUSH1 0x64 DUP3 ADD MSTORE PUSH1 0x84 ADD JUMPDEST PUSH1 0x40 MLOAD DUP1 SWAP2 SUB SWAP1 REVERT JUMPDEST PUSH0 SLOAD PUSH2 0x128 SWAP1 DUP3 PUSH2 0x26A JUMP JUMPDEST PUSH0 SSTORE PUSH1 0x40 MLOAD DUP2 DUP2 MSTORE PUSH32 0x51AF157C2EEE40F68107A47A49C32FBBEB0A3C9E5CD37AA56E88E6BE92368A81 SWAP1 PUSH1 0x20 ADD JUMPDEST PUSH1 0x40 MLOAD DUP1 SWAP2 SUB SWAP1 LOG1 POP JUMP JUMPDEST PUSH0 DUP2 GT PUSH2 0x1BC JUMPI PUSH1 0x40 MLOAD PUSH3 0x461BCD PUSH1 0xE5 SHL DUP2 MSTORE PUSH1 0x20 PUSH1 0x4 DUP3 ADD MSTORE PUSH1 0x24 DUP1 DUP3 ADD MSTORE PUSH32 0x6D756C42793A206D756C7469706C6965722073686F756C6420626520706F7369 PUSH1 0x44 DUP3 ADD MSTORE PUSH4 0x74697665 PUSH1 0xE0 SHL PUSH1 0x64 DUP3 ADD MSTORE PUSH1 0x84 ADD PUSH2 0x113 JUMP JUMPDEST PUSH0 SLOAD PUSH1 0x40 MLOAD PUSH4 0x32292B27 PUSH1 0xE2 SHL DUP2 MSTORE PUSH1 0x4 DUP2 ADD SWAP2 SWAP1 SWAP2 MSTORE PUSH1 0x24 DUP2 ADD DUP3 SWAP1 MSTORE PUSH20 0x0 SWAP1 PUSH4 0xC8A4AC9C SWAP1 PUSH1 0x44 ADD PUSH1 0x20 PUSH1 0x40 MLOAD DUP1 DUP4 SUB DUP2 DUP7 GAS DELEGATECALL ISZERO DUP1 ISZERO PUSH2 0x214 JUMPI RETURNDATASIZE PUSH0 PUSH0 RETURNDATACOPY RETURNDATASIZE PUSH0 REVERT JUMPDEST POP POP POP POP PUSH1 0x40 MLOAD RETURNDATASIZE PUSH1 0x1F NOT PUSH1 0x1F DUP3 ADD AND DUP3 ADD DUP1 PUSH1 0x40 MSTORE POP DUP2 ADD SWAP1 PUSH2 0x238 SWAP2 SWAP1 PUSH2 0x295 JUMP JUMPDEST PUSH0 SSTORE PUSH1 0x40 MLOAD DUP2 DUP2 MSTORE PUSH32 0xCBA0FC42CFD14131F8CBD3AEB2D0CD5199CCDA147AE0506FBC883C61BC964AD7 SWAP1 PUSH1 0x20 ADD PUSH2 0x156 JUMP JUMPDEST PUSH0 PUSH2 0x275 DUP3 DUP5 PUSH2 0x2AC JUMP JUMPDEST SWAP1 POP JUMPDEST SWAP3 SWAP2 POP POP JUMP JUMPDEST PUSH0 PUSH1 0x20 DUP3 DUP5 SUB SLT ISZERO PUSH2 0x28E JUMPI PUSH0 PUSH0 REVERT JUMPDEST POP CALLDATALOAD SWAP2 SWAP1 POP JUMP JUMPDEST PUSH0 PUSH1 0x20 DUP3 DUP5 SUB SLT ISZERO PUSH2 0x2A5 JUMPI PUSH0 PUSH0 REVERT JUMPDEST POP MLOAD SWAP2 SWAP1 POP JUMP JUMPDEST DUP1 DUP3 ADD DUP1 DUP3 GT ISZERO PUSH2 0x278 JUMPI PUSH4 0x4E487B71 PUSH1 0xE0 SHL PUSH0 MSTORE PUSH1 0x11 PUSH1 0x4 MSTORE PUSH1 0x24 PUSH0 REVERT INVALID LOG2 PUSH5 0x6970667358 0x22 SLT KECCAK256 0xCE DUP5 TSTORE MSTORE 0x2C 0xD2 0xBE SWAP8 0xCA CREATE 0xCE PUSH20 0x939DD59B26F789B5BD21E6FF00CAB048C94B2886 PUSH5 0x736F6C6343 STOP ADDMOD SHR STOP CALLER ",
      "linkReferences": {
        "project/contracts/ExternalMath.sol": {
          "ExternalMath": [
            {
              "start": 611,
              "length": 20
            }
          ]
        }
      }
    },
    "methodIdentifiers": {
      "incBy(uint256)": "70119d06",
      "mulBy(uint256)": "f189ba7e",
      "oracle()": "7dc0d1d0",
      "x()": "0c55699c"
    }
  }
}