{"project/contracts/Oracle.sol":{"Oracle":{"abi":[{"anonymous":false,"inputs":[{"indexed":false,"internalType":"uint256","name":"by","type":"uint256"}],"name":"Updated","type":"event"},{"inputs":[],"name":"by","outputs":[{"internalType":"uint256","name":"","type":"uint256"}],"stateMutability":"view","type":"function"},{"inputs":[{"internalType":"uint256","name":"_by","type":"uint256"}],"name":"set","outputs":[],"stateMutability":"nonpayable","type":"function"}],"evm":{"bytecode":{"linkReferences":{},"object":"6080604052348015600e575f5ffd5b5060e48061001b5f395ff3fe6080604052348015600e575f5ffd5b50600436106030575f3560e01c806360fe47b11460345780637c000138146045575b5f5ffd5b6043603f3660046098565b605e565b005b604c5f5481565b60405190815260200160405180910390f35b5f8190556040518181527f208509800c5cb9707f116ef96a1d456499ab9fa3c8edc1cdf381fe5216d5b1739060200160405180910390a150565b5f6020828403121560a7575f5ffd5b503591905056fea2646970667358221220d698eeb84c283107ad0062fbd70ddfb6c6030e56ee15c4acabccb297f47e7c2764736f6c634300081c0033","opcodes":"PUSH1 0x80 PUSH1 0x40 MSTORE CALLVALUE DUP1 ISZERO PUSH1 0xE JUMPI PUSH0 PUSH0 REVERT JUMPDEST POP PUSH1 0xE4 DUP1 PUSH2 0x1B PUSH0 CODECOPY PUSH0 RETURN INVALID PUSH1 0x80 PUSH1 0x40 MSTORE CALLVALUE DUP1 ISZERO PUSH1 0xE JUMPI PUSH0 PUSH0 REVERT JUMPDEST POP PUSH1 0x4 CALLDATASIZE LT PUSH1 0x30 JUMPI PUSH0 CALLDATALOAD PUSH1 0xE0 SHR DUP1 PUSH4 0x60FE47B1 EQ PUSH1 0x34 JUMPI DUP1 PUSH4 0x7C000138 EQ PUSH1 0x45 JUMPI JUMPDEST PUSH0 PUSH0 REVERT JUMPDEST PUSH1 0x43 PUSH1 0x3F CALLDATASIZE PUSH1 0x4 PUSH1 0x98 JUMP JUMPDEST PUSH1 0x5E JUMP JUMPDEST STOP JUMPDEST PUSH1 0x4C PUSH0 SLOAD DUP2 JUMP JUMPDEST PUSH1 0x40 MLOAD SWAP1 DUP2 MSTORE PUSH1 0x20 ADD PUSH1 0x40 MLOAD DUP1 SWAP2 SUB SWAP1 RETURN JUMPDEST PUSH0 DUP2 SWAP1 SSTORE PUSH1 0x40 MLOAD DUP2 DUP2 MSTORE PUSH32 0x208509800C5CB9707F116EF96A1D456499AB9FA3C8EDC1CDF381FE5216D5B173 SWAP1 PUSH1 0x20 ADD PUSH1 0x40 MLOAD DUP1 SWAP2 SUB SWAP1 LOG1 POP JUMP JUMPDEST PUSH0 PUSH1 0x20 DUP3 DUP5 SUB SLT ISZERO PUSH1 0xA7 JUMPI PUSH0 PUSH0 REVERT JUMPDEST POP CALLDATALOAD SWAP2 SWAP1 POP JUMP INVALID LOG2 PUSH5 0x6970667358 0x22 SLT KECCAK256 0xD6 SWAP9 0xEE 0xB8 0x4C 0x28 BALANCE SMOD 0xAD STOP PUSH3 0xFBD70D 0xDF 0xB6 0xC6 SUB 0xE JUMP 0xEE ISZERO 0xC4 0xAC 0xAB 0xCC 0xB2 SWAP8 DELEGATECALL PUSH31 0x7C2764736F6C634300081C0033000000000000000000000000000000000000 "},"methodIdentifiers":{"by()":"7c000138","set(uint256)":"60fe47b1"}}}}}