{
  "_format": "hh3-artifact-1",
  "contractName": "Counter",
  "sourceName": "contracts/Counter.sol",
  "abi": [
    {
      "inputs": [
        {
          "internalType": "contract Oracle",
          "name": "_oracle",
          "type": "address"
        }
      ],
      "stateMutability": "nonpayable",
      "type": "constructor"
    },
    {
      "anonymous": false,
      "inputs": [
        {
          "indexed": false,
          "internalType": "uint256",
          "name": "by",
          "type": "uint256"
        }
      ],
      "name": "Increment",
      "type": "event"
    },
    {
      "anonymous": false,
      "inputs": [
        {
          "indexed": false,
          "internalType": "uint256",
          "name": "by",
          "type": "uint256"
        }
      ],
      "name": "Multiply",
      "type": "event"
    },
    {
      "inputs": [
        {
          "internalType": "uint256",
          "name": "by",
          "type": "uint256"
        }
      ],
      "name": "incBy",
      "outputs": [],
      "stateMutability": "nonpayable",
      "type": "function"
    },
    {
      "inputs": [
        {
          "internalType": "uint256",
          "name": "by",
          "type": "uint256"
        }
      ],
      "name": "mulBy",
      "outputs": [],
      "stateMutability": "nonpayable",
      "type": "function"
    },
    {
      "inputs": [],
      "name": "oracle",
      "outputs": [
        {
          "internalType": "contract Oracle",
          "name": "",
          "type": "address"
        }
      ],
      "stateMutability": "view",
      "type": "function"
    },
    {
      "inputs": [],
      "name": "x",
      "outputs": [
        {
          "internalType": "uint256",
          "name": "",
          "type": "uint256"
        }
      ],
      "stateMutability": "view",
      "type": "function"
    }
  ],
  "bytecode": "0x6080604052348015600e575f5ffd5b50604051610388380380610388833981016040819052602b91604f565b600180546001600160a01b0319166001600160a01b0392909216919091179055607a565b5f60208284031215605e575f5ffd5b81516001600160a01b03811681146073575f5ffd5b9392505050565b610301806100875f395ff3fe608060405234801561000f575f5ffd5b506004361061004a575f3560e01c80630c55699c1461004e57806370119d06146100695780637dc0d1d01461007e578063f189ba7e146100a9575b5f5ffd5b6100565f5481565b6040519081526020015b60405180910390f35b61007c61007736600461027e565b6100bc565b005b600154610091906001600160a01b031681565b6040516001600160a01b039091168152602001610060565b61007c6100b736600461027e565b610161565b5f811161011c5760405162461bcd60e51b815260206004820152602360248201527f696e6342793a20696e6372656d656e742073686f756c6420626520706f73697460448201526269766560e81b60648201526084015b60405180910390fd5b5f54610128908261026a565b5f556040518181527f51af157c2eee40f68107a47a49c32fbbeb0a3c9e5cd37aa56e88e6be92368a81906020015b60405180910390a150565b5f81116101bc5760405162461bcd60e51b8152602060048201526024808201527f6d756c42793a206d756c7469706c6965722073686f756c6420626520706f73696044820152637469766560e01b6064820152608401610113565b5f546040516332292b2760e21b815260048101919091526024810182905273__$1f216dc397dcd3de76fc49538f5b3d5e5e$__9063c8a4ac9c90604401602060405180830381865af4158015610214573d5f5f3e3d5ffd5b505050506040513d601f19601f820116820180604052508101906102389190610295565b5f556040518181527fcba0fc42cfd14131f8cbd3aeb2d0cd5199ccda147ae0506fbc883c61bc964ad790602001610156565b5f61027582846102ac565b90505b92915050565b5f6020828403121561028e575f5ffd5b5035919050565b5f602082840312156102a5575f5ffd5b5051919050565b8082018082111561027857634e487b7160e01b5f52601160045260245ffdfea2646970667358221220ce845d522cd2be97caf0ce73939dd59b26f789b5bd21e6ff00cab048c94b288664736f6c634300081c0033",
  "linkReferences": {
    "project/contracts/ExternalMath.sol": {
      "ExternalMath": [
        {
          "length": 20,
          "start": 611
        }
      ]
    }
  },
  "deployedLinkReferences": {
    "project/contracts/ExternalMath.sol": {
      "ExternalMath": [
        {
          "length": 20,
          "start": 476
        }
      ]
    }
  },
  "immutableReferences": {},
  "inputSourceName": "project/contracts/Counter.sol",
  "buildInfoId": "solc-0_8_28-1ddc03366f37a4a80c27fba069bb9957622eb237"
}