{
  "_format": "hh3-artifact-1",
  "contractName": "Oracle",
  "sourceName": "contracts/Oracle.sol",
  "abi": [
    {
      "anonymous": false,
      "inputs": [
        {
          "indexed": false,
          "internalType": "uint256",
          "name": "by",
          "type": "uint256"
        }
      ],
      "name": "Updated",
      "type": "event"
    },
    {
      "inputs": [],
      "name": "by",
      "outputs": [
        {
          "internalType": "uint256",
          "name": "",
          "type": "uint256"
        }
      ],
      "stateMutability": "view",
      "type": "function"
    },
    {
      "inputs": [
        {
          "internalType": "uint256",
          "name": "_by",
          "type": "uint256"
        }
      ],
      "name": "set",
      "outputs": [],
      "stateMutability": "nonpayable",
      "type": "function"
    }
  ],
  "bytecode": "0x6080604052348015600e575f5ffd5b5060e48061001b5f395ff3fe6080604052348015600e575f5ffd5b50600436106030575f3560e01c806360fe47b11460345780637c000138146045575b5f5ffd5b6043603f3660046098565b605e565b005b604c5f5481565b60405190815260200160405180910390f35b5f8190556040518181527f208509800c5cb9707f116ef96a1d456499ab9fa3c8edc1cdf381fe5216d5b1739060200160405180910390a150565b5f6020828403121560a7575f5ffd5b503591905056fea2646970667358221220d698eeb84c283107ad0062fbd70ddfb6c6030e56ee15c4acabccb297f47e7c2764736f6c634300081c0033",
  "linkReferences": {},
  "deployedLinkReferences": {},
  "immutableReferences": {},
  "inputSourceName": "project/contracts/Oracle.sol",
  "buildInfoId": "solc-0_8_28-413edcd69216878397b8b5ea2c09f754193b66e8"
}